{
  "contractName": "SimpleStorage",
  "abi": [
    {
      "constant": true,
      "inputs": [],
      "name": "minter",
      "outputs": [
        {
          "name": "",
          "type": "address"
        }
      ],
      "payable": false,
      "stateMutability": "view",
      "type": "function"
    },
    {
      "constant": true,
      "inputs": [
        {
          "name": "",
          "type": "uint256"
        }
      ],
      "name": "startedSupplier",
      "outputs": [
        {
          "name": "",
          "type": "string"
        }
      ],
      "payable": false,
      "stateMutability": "view",
      "type": "function"
    },
    {
      "constant": true,
      "inputs": [],
      "name": "initBalance",
      "outputs": [
        {
          "name": "",
          "type": "uint256"
        }
      ],
      "payable": false,
      "stateMutability": "view",
      "type": "function"
    },
    {
      "inputs": [],
      "payable": false,
      "stateMutability": "nonpayable",
      "type": "constructor"
    },
    {
      "constant": false,
      "inputs": [
        {
          "name": "_initBalance",
          "type": "uint256"
        }
      ],
      "name": "changeInitBalance",
      "outputs": [],
      "payable": false,
      "stateMutability": "nonpayable",
      "type": "function"
    },
    {
      "constant": false,
      "inputs": [
        {
          "name": "_name",
          "type": "string"
        }
      ],
      "name": "register",
      "outputs": [],
      "payable": false,
      "stateMutability": "nonpayable",
      "type": "function"
    },
    {
      "constant": true,
      "inputs": [
        {
          "name": "_name",
          "type": "string"
        }
      ],
      "name": "getBalance",
      "outputs": [
        {
          "name": "",
          "type": "uint256"
        }
      ],
      "payable": false,
      "stateMutability": "view",
      "type": "function"
    },
    {
      "constant": false,
      "inputs": [
        {
          "name": "_supplier",
          "type": "string"
        },
        {
          "name": "_name",
          "type": "string"
        },
        {
          "name": "_cpu",
          "type": "uint256"
        },
        {
          "name": "_gpu",
          "type": "uint256"
        },
        {
          "name": "_memory",
          "type": "uint256"
        },
        {
          "name": "_band",
          "type": "uint256"
        },
        {
          "name": "_cost",
          "type": "uint256"
        }
      ],
      "name": "bidding",
      "outputs": [],
      "payable": false,
      "stateMutability": "nonpayable",
      "type": "function"
    },
    {
      "constant": false,
      "inputs": [
        {
          "name": "_supplier",
          "type": "string"
        },
        {
          "name": "_cpu",
          "type": "uint256"
        },
        {
          "name": "_gpu",
          "type": "uint256"
        },
        {
          "name": "_memory",
          "type": "uint256"
        },
        {
          "name": "_band",
          "type": "uint256"
        },
        {
          "name": "_time",
          "type": "uint256"
        }
      ],
      "name": "startBusiness",
      "outputs": [],
      "payable": false,
      "stateMutability": "nonpayable",
      "type": "function"
    }
  ],
  "bytecode": "0x6080604052606460015534801561001557600080fd5b5033600360006101000a81548173ffffffffffffffffffffffffffffffffffffffff021916908373ffffffffffffffffffffffffffffffffffffffff1602179055506005600060405180807f63707500000000000000000000000000000000000000000000000000000000008152506003019050908152602001604051809103902081905550600a600060405180807f677075000000000000000000000000000000000000000000000000000000000081525060030190509081526020016040518091039020819055506002600060405180807f6d656d6f7279000000000000000000000000000000000000000000000000000081525060060190509081526020016040518091039020819055506001600060405180807f62616e64000000000000000000000000000000000000000000000000000000008152506004019050908152602001604051809103902081905550610bbe806101766000396000f30060806040526004361061008e576000357c0100000000000000000000000000000000000000000000000000000000900463ffffffff1680630754617214610093578063220af0ca146100ea5780633a51d246146101855780635b42a548146102025780637608d46a146102a8578063c0a7a2a414610389578063d59a2ad6146103b6578063f2c298be146103e1575b600080fd5b34801561009f57600080fd5b506100a861044a565b604051808273ffffffffffffffffffffffffffffffffffffffff1673ffffffffffffffffffffffffffffffffffffffff16815260200191505060405180910390f35b3480156100f657600080fd5b50610183600480360381019080803590602001908201803590602001908080601f01602080910402602001604051908101604052809392919081815260200183838082843782019150505050505091929192908035906020019092919080359060200190929190803590602001909291908035906020019092919080359060200190929190505050610470565b005b34801561019157600080fd5b506101ec600480360381019080803590602001908201803590602001908080601f0160208091040260200160405190810160405280939291908181526020018383808284378201915050505050509192919290505050610556565b6040518082815260200191505060405180910390f35b34801561020e57600080fd5b5061022d600480360381019080803590602001909291905050506105cb565b6040518080602001828103825283818151815260200191508051906020019080838360005b8381101561026d578082015181840152602081019050610252565b50505050905090810190601f16801561029a5780820380516001836020036101000a031916815260200191505b509250505060405180910390f35b3480156102b457600080fd5b50610387600480360381019080803590602001908201803590602001908080601f0160208091040260200160405190810160405280939291908181526020018383808284378201915050505050509192919290803590602001908201803590602001908080601f01602080910402602001604051908101604052809392919081815260200183838082843782019150505050505091929192908035906020019092919080359060200190929190803590602001909291908035906020019092919080359060200190929190505050610686565b005b34801561039557600080fd5b506103b46004803603810190808035906020019092919050505061098b565b005b3480156103c257600080fd5b506103cb6109f2565b6040518082815260200191505060405180910390f35b3480156103ed57600080fd5b50610448600480360381019080803590602001908201803590602001908080601f01602080910402602001604051908101604052809392919081815260200183838082843782019150505050505091929192905050506109f8565b005b600360009054906101000a900473ffffffffffffffffffffffffffffffffffffffff1681565b60006006876040518082805190602001908083835b6020831015156104aa5780518252602082019150602081019050602083039250610485565b6001836020036101000a038019825116818451168082178552505050505050905001915050908152602001604051809103902090508581600001819055508481600101819055508381600201819055508281600301819055508142018160050181905550600587908060018154018082558091505090600182039060005260206000200160009091929091909150908051906020019061054b929190610a6d565b505050505050505050565b60006002826040518082805190602001908083835b602083101515610590578051825260208201915060208101905060208303925061056b565b6001836020036101000a0380198251168184511680821785525050505050509050019150509081526020016040518091039020549050919050565b6005818154811015156105da57fe5b906000526020600020016000915090508054600181600116156101000203166002900480601f01602080910402602001604051908101604052809291908181526020018280546001816001161561010002031660029004801561067e5780601f106106535761010080835404028352916020019161067e565b820191906000526020600020905b81548152906001019060200180831161066157829003601f168201915b505050505081565b6006876040518082805190602001908083835b6020831015156106be5780518252602082019150602081019050602083039250610699565b6001836020036101000a038019825116818451168082178552505050505050905001915050908152602001604051809103902060000154851115801561077257506006876040518082805190602001908083835b6020831015156107375780518252602082019150602081019050602083039250610712565b6001836020036101000a0380198251168184511680821785525050505050509050019150509081526020016040518091039020600101548411155b80156107ec57506006876040518082805190602001908083835b6020831015156107b1578051825260208201915060208101905060208303925061078c565b6001836020036101000a0380198251168184511680821785525050505050509050019150509081526020016040518091039020600201548311155b801561086657506006876040518082805190602001908083835b60208310151561082b5780518252602082019150602081019050602083039250610806565b6001836020036101000a0380198251168184511680821785525050505050509050019150509081526020016040518091039020600301548211155b15610982576004876040518082805190602001908083835b6020831015156108a3578051825260208201915060208101905060208303925061087e565b6001836020036101000a038019825116818451168082178552505050505050905001915050908152602001604051809103902060c0604051908101604052808881526020018781526020018681526020018581526020018481526020018381525090806001815401808255809150509060018203906000526020600020906006020160009091929091909150600082015181600001908051906020019061094b929190610aed565b506020820151816001015560408201518160020155606082015181600301556080820151816004015560a082015181600501555050505b50505050505050565b600360009054906101000a900473ffffffffffffffffffffffffffffffffffffffff1673ffffffffffffffffffffffffffffffffffffffff163373ffffffffffffffffffffffffffffffffffffffff161415156109e7576109ef565b806001819055505b50565b60015481565b6001546002826040518082805190602001908083835b602083101515610a335780518252602082019150602081019050602083039250610a0e565b6001836020036101000a03801982511681845116808217855250505050505090500191505090815260200160405180910390208190555050565b828054600181600116156101000203166002900490600052602060002090601f016020900481019282601f10610aae57805160ff1916838001178555610adc565b82800160010185558215610adc579182015b82811115610adb578251825591602001919060010190610ac0565b5b509050610ae99190610b6d565b5090565b828054600181600116156101000203166002900490600052602060002090601f016020900481019282601f10610b2e57805160ff1916838001178555610b5c565b82800160010185558215610b5c579182015b82811115610b5b578251825591602001919060010190610b40565b5b509050610b699190610b6d565b5090565b610b8f91905b80821115610b8b576000816000905550600101610b73565b5090565b905600a165627a7a72305820b1d9f2c9c66bfc73bf6e489aa0d3ad37ff40c024b7ef5b4edf7a4082cf4775780029",
  "source": "pragma solidity ^0.4.18;\r\n\r\ncontract SimpleStorage{\r\n\r\n    struct Bid{\r\n        string Name;//拍卖者用户名或者供应商用户名\r\n        uint Cpu;\r\n        uint Gpu;\r\n        uint Memory;\r\n        uint Band;\r\n        uint Cost;\r\n\r\n    }\r\n\r\n    struct Business{\r\n        uint Cpu;\r\n        uint Gpu;\r\n        uint Memory;\r\n        uint Band;\r\n        uint Cost;\r\n        uint EndTime;//拍卖结束时间\r\n    }\r\n\r\n    struct Business_ltera{\r\n        mapping(string=>Bid[]) successBids;//每个拍卖者对应的成功的投标\r\n        mapping(uint=>string) successBids_lterable;//用于对成功投标的遍历\r\n        uint size;\r\n    }\r\n\r\n    //记录拍卖的虚拟机的各部分的成本价格之比\r\n    mapping(string=>uint) worthratio;\r\n\r\n    uint public initBalance =100;//初始金额，只能由合约创建者修改\r\n    mapping(string=>uint)  balanceOf;//记录每个用户（包括拍卖者和供应商）的金额\r\n\r\n    address public minter;//合约创建者\r\n    mapping(string=>Bid[])  bids;//每个供应商对应的投标\r\n    string[] public startedSupplier;//记录有拍卖活动的供应商\r\n    mapping(string=>Business) business;//记录开始拍卖的供应商的拍卖品和拍卖结束时间\r\n\r\n\r\n    Business_ltera successBids_ltera;//每个拍卖者成功的投标（可遍历）\r\n\r\n\r\n\r\n    constructor() public{\r\n        minter = msg.sender;\r\n        //确立虚拟机各部分的价格之比为 cpu:gpu:memory:band = 5:10:2:1\r\n        worthratio[\"cpu\"] = 5;\r\n        worthratio[\"gpu\"] = 10;\r\n        worthratio[\"memory\"] = 2;\r\n        worthratio[\"band\"] = 1;\r\n    }\r\n\r\n    //改变用户的初始金额（只有合约的创建者才能调用）\r\n    function changeInitBalance(uint _initBalance) public{\r\n        if(msg.sender!=minter) return;\r\n        initBalance = _initBalance;\r\n    }\r\n\r\n    //将用户注册在区块链上\r\n    function register(string memory _name) public{\r\n        balanceOf[_name] = initBalance;\r\n    }\r\n\r\n    //查询用户的余额\r\n    function getBalance(string memory _name) public view returns(uint){\r\n        return balanceOf[_name];\r\n    }\r\n\r\n    //将用户的投标根据供应商的不同进行存储\r\n    function bidding(string memory _supplier,string memory _name,uint _cpu,uint _gpu,uint _memory,uint _band,uint _cost) public {\r\n        if(_cpu<=business[_supplier].Cpu&&_gpu<=business[_supplier].Gpu&&_memory<=business[_supplier].Memory&&_band<=business[_supplier].Band){\r\n            bids[_supplier].push(Bid({\r\n                Name:_name,\r\n                Cpu:_cpu,\r\n                Gpu:_gpu,\r\n                Memory:_memory,\r\n                Band:_band,\r\n                Cost:_cost\r\n\r\n            }));\r\n        }\r\n    }\r\n\r\n    //由供应商调用，代表上架拍卖品\r\n    function startBusiness(string memory _supplier,uint _cpu,uint _gpu,uint _memory,uint _band,uint _time) public{\r\n        Business storage bus = business[_supplier];\r\n        bus.Cpu = _cpu;\r\n        bus.Gpu = _gpu;\r\n        bus.Memory = _memory;\r\n        bus.Band = _band;\r\n        bus.EndTime = now + _time;\r\n        startedSupplier.push(_supplier);\r\n    }\r\n\r\n    //分配资源,遍历bids\r\n    function allocation() internal {\r\n        uint log = 0;//在成功分配订单中的记录\r\n\r\n        for(uint i=0;i<startedSupplier.length;i++){\r\n            Bid[] bs = bids[startedSupplier[i]];\r\n            sortbids(bs);\r\n            for(uint j=0;j<bs.length;j++){\r\n                uint[] sum ;//记录订单中虚拟机每部分的数量之和\r\n                sum[0] += bs[j].Cpu;\r\n                sum[1] += bs[j].Gpu;\r\n                sum[2] += bs[j].Memory;\r\n                sum[3] += bs[j].Band;\r\n                Business bus = business[startedSupplier[i]];\r\n\r\n                if(sum[0]<=bus.Cpu&&sum[1]<=bus.Gpu&&sum[2]<=bus.Memory&&sum[3]<=bus.Band){\r\n                    successBids_ltera.successBids[bs[j].Name].push(bs[j]);\r\n                    successBids_ltera.successBids_lterable[log] = bs[j].Name;\r\n                    successBids_ltera.size++;\r\n\r\n                }else{\r\n                    sum[0] = 0;\r\n                    sum[1] = 0;\r\n                    sum[2] = 0;\r\n                    sum[3] = 0;\r\n                    break;\r\n                }\r\n\r\n            }\r\n        }\r\n\r\n    }\r\n\r\n    //对每个订单按照单价的从高到低进行排序，用于分配资源（待修改）\r\n\r\n    function sortbids(Bid[] storage bs) internal{\r\n        for(uint i=0;i<bs.length-1;i++){\r\n            for(uint j=0;j<bs.length-i-1;j++){\r\n                uint  num1 = bs[j].Cpu*worthratio[\"cpu\"]+bs[j].Gpu*worthratio[\"gpu\"]+bs[j].Memory*worthratio[\"memory\"]+bs[j].Band*worthratio[\"band\"];\r\n                uint  num2 = bs[j+1].Cpu*worthratio[\"cpu\"]+bs[j+1].Gpu*worthratio[\"gpu\"]+bs[j+1].Memory*worthratio[\"memory\"]+bs[j+1].Band*worthratio[\"band\"];\r\n                if(bs[j].Cost/num1<bs[j].Cost/num2){\r\n                    Bid tmp = bs[j];\r\n                    bs[j] = bs[j+1];\r\n                    bs[j+1] = tmp;\r\n                }\r\n            }\r\n        }\r\n    }\r\n\r\n    //对成功拍卖的订单进行收费给供应商\r\n    function exchange() internal{\r\n       successBids_ltera.size;\r\n\r\n        for(uint i=0;i<successBids_ltera.size;i++){\r\n            string memory _user = successBids_ltera.successBids_lterable[i];\r\n            Bid[] storage bids = successBids_ltera.successBids[_user];//用户的投标\r\n            uint costSum = 0;\r\n            for(uint j=0;j<bids.length;j++){\r\n                costSum = costSum+bids[j].Cost;\r\n                balanceOf[bids[j].Name] += bids[j].Cost;\r\n            }\r\n            balanceOf[_user] -= costSum;\r\n        }\r\n    }\r\n\r\n   /* // 返回用户得到的资源分配\r\n    function getRource(string memory _user) public view returns(){\r\n        return successBids_ltera.successBids[_user];\r\n    } */\r\n\r\n\r\n\r\n}\r\n",
  "sourcePath": "D:\\online_auction\\contracts\\copy.sol",
  "compiler": {
    "name": "solc",
    "version": "0.4.24+commit.e67f0147.Emscripten.clang"
  },
  "schemaVersion": "2.0.1",
  "updatedAt": "2019-02-19T07:39:24.814Z"
}