{
  "contractName": "SimpleStorage",
  "abi": [
    {
      "constant": true,
      "inputs": [],
      "name": "minter",
      "outputs": [
        {
          "name": "",
          "type": "address"
        }
      ],
      "payable": false,
      "stateMutability": "view",
      "type": "function"
    },
    {
      "constant": true,
      "inputs": [
        {
          "name": "",
          "type": "uint256"
        }
      ],
      "name": "startedSupplier",
      "outputs": [
        {
          "name": "",
          "type": "string"
        }
      ],
      "payable": false,
      "stateMutability": "view",
      "type": "function"
    },
    {
      "constant": true,
      "inputs": [],
      "name": "initBalance",
      "outputs": [
        {
          "name": "",
          "type": "uint256"
        }
      ],
      "payable": false,
      "stateMutability": "view",
      "type": "function"
    },
    {
      "inputs": [],
      "payable": false,
      "stateMutability": "nonpayable",
      "type": "constructor"
    },
    {
      "constant": false,
      "inputs": [
        {
          "name": "_initBalance",
          "type": "uint256"
        }
      ],
      "name": "changeInitBalance",
      "outputs": [],
      "payable": false,
      "stateMutability": "nonpayable",
      "type": "function"
    },
    {
      "constant": false,
      "inputs": [
        {
          "name": "_name",
          "type": "string"
        }
      ],
      "name": "register",
      "outputs": [],
      "payable": false,
      "stateMutability": "nonpayable",
      "type": "function"
    },
    {
      "constant": true,
      "inputs": [
        {
          "name": "_name",
          "type": "string"
        }
      ],
      "name": "getBalance",
      "outputs": [
        {
          "name": "",
          "type": "uint256"
        }
      ],
      "payable": false,
      "stateMutability": "view",
      "type": "function"
    },
    {
      "constant": false,
      "inputs": [
        {
          "name": "_supplier",
          "type": "string"
        },
        {
          "name": "_cpu",
          "type": "uint256"
        },
        {
          "name": "_gpu",
          "type": "uint256"
        },
        {
          "name": "_memory",
          "type": "uint256"
        },
        {
          "name": "_band",
          "type": "uint256"
        },
        {
          "name": "_time",
          "type": "uint256"
        }
      ],
      "name": "startBusiness",
      "outputs": [],
      "payable": false,
      "stateMutability": "nonpayable",
      "type": "function"
    },
    {
      "constant": false,
      "inputs": [
        {
          "name": "_supplier",
          "type": "string"
        },
        {
          "name": "_name",
          "type": "string"
        },
        {
          "name": "_cpu",
          "type": "uint256"
        },
        {
          "name": "_gpu",
          "type": "uint256"
        },
        {
          "name": "_memory",
          "type": "uint256"
        },
        {
          "name": "_band",
          "type": "uint256"
        },
        {
          "name": "_cost",
          "type": "uint256"
        }
      ],
      "name": "bidding",
      "outputs": [],
      "payable": false,
      "stateMutability": "nonpayable",
      "type": "function"
    },
    {
      "constant": false,
      "inputs": [],
      "name": "allocation",
      "outputs": [],
      "payable": false,
      "stateMutability": "nonpayable",
      "type": "function"
    },
    {
      "constant": false,
      "inputs": [
        {
          "name": "_user",
          "type": "string"
        },
        {
          "name": "_supplier",
          "type": "string"
        }
      ],
      "name": "setRource",
      "outputs": [],
      "payable": false,
      "stateMutability": "nonpayable",
      "type": "function"
    },
    {
      "constant": true,
      "inputs": [
        {
          "name": "_user",
          "type": "string"
        }
      ],
      "name": "getRource",
      "outputs": [
        {
          "name": "",
          "type": "uint256"
        },
        {
          "name": "",
          "type": "uint256"
        },
        {
          "name": "",
          "type": "uint256"
        },
        {
          "name": "",
          "type": "uint256"
        }
      ],
      "payable": false,
      "stateMutability": "view",
      "type": "function"
    },
    {
      "constant": false,
      "inputs": [],
      "name": "exchange",
      "outputs": [],
      "payable": false,
      "stateMutability": "nonpayable",
      "type": "function"
    }
  ],
  "bytecode": "0x6080604052606460015534801561001557600080fd5b5033600360006101000a81548173ffffffffffffffffffffffffffffffffffffffff021916908373ffffffffffffffffffffffffffffffffffffffff1602179055506005600060405180807f63707500000000000000000000000000000000000000000000000000000000008152506003019050908152602001604051809103902081905550600a600060405180807f677075000000000000000000000000000000000000000000000000000000000081525060030190509081526020016040518091039020819055506002600060405180807f6d656d6f7279000000000000000000000000000000000000000000000000000081525060060190509081526020016040518091039020819055506001600060405180807f62616e64000000000000000000000000000000000000000000000000000000008152506004019050908152602001604051809103902081905550612222806101766000396000f3006080604052600436106100ba576000357c0100000000000000000000000000000000000000000000000000000000900463ffffffff16806307546172146100bf578063220af0ca14610116578063233cd126146101b15780633a51d246146102435780635b42a548146102c05780637608d46a1461036657806384b4c6411461044757806388a17bde146104f6578063c0a7a2a41461050d578063d2f7265a1461053a578063d59a2ad614610551578063f2c298be1461057c575b600080fd5b3480156100cb57600080fd5b506100d46105e5565b604051808273ffffffffffffffffffffffffffffffffffffffff1673ffffffffffffffffffffffffffffffffffffffff16815260200191505060405180910390f35b34801561012257600080fd5b506101af600480360381019080803590602001908201803590602001908080601f0160208091040260200160405190810160405280939291908181526020018383808284378201915050505050509192919290803590602001909291908035906020019092919080359060200190929190803590602001909291908035906020019092919050505061060b565b005b3480156101bd57600080fd5b50610218600480360381019080803590602001908201803590602001908080601f01602080910402602001604051908101604052809392919081815260200183838082843782019150505050505091929192905050506106f1565b6040518085815260200184815260200183815260200182815260200194505050505060405180910390f35b34801561024f57600080fd5b506102aa600480360381019080803590602001908201803590602001908080601f0160208091040260200160405190810160405280939291908181526020018383808284378201915050505050509192919290505050610916565b6040518082815260200191505060405180910390f35b3480156102cc57600080fd5b506102eb6004803603810190808035906020019092919050505061098b565b6040518080602001828103825283818151815260200191508051906020019080838360005b8381101561032b578082015181840152602081019050610310565b50505050905090810190601f1680156103585780820380516001836020036101000a031916815260200191505b509250505060405180910390f35b34801561037257600080fd5b50610445600480360381019080803590602001908201803590602001908080601f0160208091040260200160405190810160405280939291908181526020018383808284378201915050505050509192919290803590602001908201803590602001908080601f01602080910402602001604051908101604052809392919081815260200183838082843782019150505050505091929192908035906020019092919080359060200190929190803590602001909291908035906020019092919080359060200190929190505050610a46565b005b34801561045357600080fd5b506104f4600480360381019080803590602001908201803590602001908080601f0160208091040260200160405190810160405280939291908181526020018383808284378201915050505050509192919290803590602001908201803590602001908080601f0160208091040260200160405190810160405280939291908181526020018383808284378201915050505050509192919290505050610d4b565b005b34801561050257600080fd5b5061050b611589565b005b34801561051957600080fd5b5061053860048036038101908080359060200190929190505050611c17565b005b34801561054657600080fd5b5061054f611c7e565b005b34801561055d57600080fd5b50610566611f48565b6040518082815260200191505060405180910390f35b34801561058857600080fd5b506105e3600480360381019080803590602001908201803590602001908080601f0160208091040260200160405190810160405280939291908181526020018383808284378201915050505050509192919290505050611f4e565b005b600360009054906101000a900473ffffffffffffffffffffffffffffffffffffffff1681565b60006006876040518082805190602001908083835b6020831015156106455780518252602082019150602081019050602083039250610620565b6001836020036101000a03801982511681845116808217855250505050505090500191505090815260200160405180910390209050858160000181905550848160010181905550838160020181905550828160030181905550814201816005018190555060058790806001815401808255809150509060018203906000526020600020016000909192909190915090805190602001906106e6929190611fc3565b505050505050505050565b600080600080600a856040518082805190602001908083835b60208310151561072f578051825260208201915060208101905060208303925061070a565b6001836020036101000a0380198251168184511680821785525050505050509050019150509081526020016040518091039020600081548110151561077057fe5b9060005260206000200154600a866040518082805190602001908083835b6020831015156107b3578051825260208201915060208101905060208303925061078e565b6001836020036101000a038019825116818451168082178552505050505050905001915050908152602001604051809103902060018154811015156107f457fe5b9060005260206000200154600a876040518082805190602001908083835b6020831015156108375780518252602082019150602081019050602083039250610812565b6001836020036101000a0380198251168184511680821785525050505050509050019150509081526020016040518091039020600281548110151561087857fe5b9060005260206000200154600a886040518082805190602001908083835b6020831015156108bb5780518252602082019150602081019050602083039250610896565b6001836020036101000a038019825116818451168082178552505050505050905001915050908152602001604051809103902060038154811015156108fc57fe5b906000526020600020015493509350935093509193509193565b60006002826040518082805190602001908083835b602083101515610950578051825260208201915060208101905060208303925061092b565b6001836020036101000a0380198251168184511680821785525050505050509050019150509081526020016040518091039020549050919050565b60058181548110151561099a57fe5b906000526020600020016000915090508054600181600116156101000203166002900480601f016020809104026020016040519081016040528092919081815260200182805460018160011615610100020316600290048015610a3e5780601f10610a1357610100808354040283529160200191610a3e565b820191906000526020600020905b815481529060010190602001808311610a2157829003601f168201915b505050505081565b6006876040518082805190602001908083835b602083101515610a7e5780518252602082019150602081019050602083039250610a59565b6001836020036101000a0380198251168184511680821785525050505050509050019150509081526020016040518091039020600001548511158015610b3257506006876040518082805190602001908083835b602083101515610af75780518252602082019150602081019050602083039250610ad2565b6001836020036101000a0380198251168184511680821785525050505050509050019150509081526020016040518091039020600101548411155b8015610bac57506006876040518082805190602001908083835b602083101515610b715780518252602082019150602081019050602083039250610b4c565b6001836020036101000a0380198251168184511680821785525050505050509050019150509081526020016040518091039020600201548311155b8015610c2657506006876040518082805190602001908083835b602083101515610beb5780518252602082019150602081019050602083039250610bc6565b6001836020036101000a0380198251168184511680821785525050505050509050019150509081526020016040518091039020600301548211155b15610d42576004876040518082805190602001908083835b602083101515610c635780518252602082019150602081019050602083039250610c3e565b6001836020036101000a038019825116818451168082178552505050505050905001915050908152602001604051809103902060c06040519081016040528088815260200187815260200186815260200185815260200184815260200183815250908060018154018082558091505090600182039060005260206000209060060201600090919290919091506000820151816000019080519060200190610d0b929190612043565b506020820151816001015560408201518160020155606082015181600301556080820151816004015560a082015181600501555050505b50505050505050565b600080600060606007600001866040518082805190602001908083835b602083101515610d8d5780518252602082019150602081019050602083039250610d68565b6001836020036101000a0380198251168184511680821785525050505050509050019150509081526020016040518091039020935060009250600091505b838054905082101561131f578382815481101515610de557fe5b90600052602060002090600602016000018054600181600116156101000203166002900480601f016020809104026020016040519081016040528092919081815260200182805460018160011615610100020316600290048015610e8a5780601f10610e5f57610100808354040283529160200191610e8a565b820191906000526020600020905b815481529060010190602001808311610e6d57829003601f168201915b50505050509050846040516020018082805190602001908083835b602083101515610eca5780518252602082019150602081019050602083039250610ea5565b6001836020036101000a0380198251168184511680821785525050505050509050019150506040516020818303038152906040526040518082805190602001908083835b602083101515610f335780518252602082019150602081019050602083039250610f0e565b6001836020036101000a038019825116818451168082178552505050505050905001915050604051809103902060001916816040516020018082805190602001908083835b602083101515610f9d5780518252602082019150602081019050602083039250610f78565b6001836020036101000a0380198251168184511680821785525050505050509050019150506040516020818303038152906040526040518082805190602001908083835b6020831015156110065780518252602082019150602081019050602083039250610fe1565b6001836020036101000a038019825116818451168082178552505050505050905001915050604051809103902060001916141561131257600a866040518082805190602001908083835b6020831015156110755780518252602082019150602081019050602083039250611050565b6001836020036101000a038019825116818451168082178552505050505050905001915050908152602001604051809103902084838154811015156110b657fe5b9060005260206000209060060201600101549080600181540180825580915050906001820390600052602060002001600090919290919091505550600a866040518082805190602001908083835b6020831015156111295780518252602082019150602081019050602083039250611104565b6001836020036101000a0380198251168184511680821785525050505050509050019150509081526020016040518091039020848381548110151561116a57fe5b9060005260206000209060060201600201549080600181540180825580915050906001820390600052602060002001600090919290919091505550600a866040518082805190602001908083835b6020831015156111dd57805182526020820191506020810190506020830392506111b8565b6001836020036101000a0380198251168184511680821785525050505050509050019150509081526020016040518091039020848381548110151561121e57fe5b9060005260206000209060060201600301549080600181540180825580915050906001820390600052602060002001600090919290919091505550600a866040518082805190602001908083835b602083101515611291578051825260208201915060208101905060208303925061126c565b6001836020036101000a038019825116818451168082178552505050505050905001915050908152602001604051809103902084838154811015156112d257fe5b9060005260206000209060060201600401549080600181540180825580915050906001820390600052602060002001600090919290919091505550600192505b8180600101925050610dcb565b600083141561158157600a866040518082805190602001908083835b602083101515611360578051825260208201915060208101905060208303925061133b565b6001836020036101000a038019825116818451168082178552505050505050905001915050908152602001604051809103902060009080600181540180825580915050906001820390600052602060002001600090919290919091505550600a866040518082805190602001908083835b6020831015156113f657805182526020820191506020810190506020830392506113d1565b6001836020036101000a038019825116818451168082178552505050505050905001915050908152602001604051809103902060009080600181540180825580915050906001820390600052602060002001600090919290919091505550600a866040518082805190602001908083835b60208310151561148c5780518252602082019150602081019050602083039250611467565b6001836020036101000a038019825116818451168082178552505050505050905001915050908152602001604051809103902060009080600181540180825580915050906001820390600052602060002001600090919290919091505550600a866040518082805190602001908083835b60208310151561152257805182526020820191506020810190506020830392506114fd565b6001836020036101000a0380198251168184511680821785525050505050509050019150509081526020016040518091039020600090806001815401808255809150509060018203906000526020600020016000909192909190915055505b505050505050565b60008060008060606000809550600094505b600580549050851015611c0f5760066005868154811015156115b957fe5b90600052602060002001604051808280546001816001161561010002031660029004801561161e5780601f106115fc57610100808354040283529182019161161e565b820191906000526020600020905b81548152906001019060200180831161160a575b5050915050908152602001604051809103902060050154421115611c0257600460058681548110151561164d57fe5b9060005260206000200160405180828054600181600116156101000203166002900480156116b25780601f106116905761010080835404028352918201916116b2565b820191906000526020600020905b81548152906001019060200180831161169e575b505091505090815260200160405180910390209350600092505b8380549050831015611c015783838154811015156116e657fe5b90600052602060002090600602016001015482600081518110151561170757fe5b9060200190602002018181510191508181525050838381548110151561172957fe5b90600052602060002090600602016002015482600181518110151561174a57fe5b9060200190602002018181510191508181525050838381548110151561176c57fe5b90600052602060002090600602016003015482600281518110151561178d57fe5b906020019060200201818151019150818152505083838154811015156117af57fe5b9060005260206000209060060201600401548260038151811015156117d057fe5b906020019060200201818151019150818152505060066005868154811015156117f557fe5b90600052602060002001604051808280546001816001161561010002031660029004801561185a5780601f1061183857610100808354040283529182019161185a565b820191906000526020600020905b815481529060010190602001808311611846575b505091505090815260200160405180910390209050806000015482600081518110151561188357fe5b90602001906020020151111580156118b7575080600101548260018151811015156118aa57fe5b9060200190602002015111155b80156118df575080600201548260028151811015156118d257fe5b9060200190602002015111155b8015611907575080600301548260038151811015156118fa57fe5b9060200190602002015111155b15611b73576007600001848481548110151561191f57fe5b9060005260206000209060060201600001604051808280546001816001161561010002031660029004801561198b5780601f1061196957610100808354040283529182019161198b565b820191906000526020600020905b815481529060010190602001808311611977575b5050915050908152602001604051809103902084848154811015156119ac57fe5b90600052602060002090600602019080600181540180825580915050906001820390600052602060002090600602016000909192909190915060008201816000019080546001816001161561010002031660029004611a0c9291906120c3565b5060018201548160010155600282015481600201556003820154816003015560048201548160040155600582015481600501555050508383815481101515611a5057fe5b9060005260206000209060060201600001600760010160008881526020019081526020016000209080546001816001161561010002031660029004611a9692919061214a565b506007600201600081548092919060010191905055506001860195506006600586815481101515611ac357fe5b906000526020600020016040518082805460018160011615610100020316600290048015611b285780601f10611b06576101008083540402835291820191611b28565b820191906000526020600020905b815481529060010190602001808311611b14575b50509150509081526020016040518091039020600080820160009055600182016000905560028201600090556003820160009055600482016000905560058201600090555050611bf4565b6000826000815181101515611b8457fe5b90602001906020020181815250506000826001815181101515611ba357fe5b90602001906020020181815250506000826002815181101515611bc257fe5b90602001906020020181815250506000826003815181101515611be157fe5b9060200190602002018181525050611c01565b82806001019350506116cc565b5b848060010195505061159b565b505050505050565b600360009054906101000a900473ffffffffffffffffffffffffffffffffffffffff1673ffffffffffffffffffffffffffffffffffffffff163373ffffffffffffffffffffffffffffffffffffffff16141515611c7357611c7b565b806001819055505b50565b6000606060008060008094505b600760020154851015611f4157600760010160008681526020019081526020016000208054600181600116156101000203166002900480601f016020809104026020016040519081016040528092919081815260200182805460018160011615610100020316600290048015611d425780601f10611d1757610100808354040283529160200191611d42565b820191906000526020600020905b815481529060010190602001808311611d2557829003601f168201915b505050505093506007600001846040518082805190602001908083835b602083101515611d845780518252602082019150602081019050602083039250611d5f565b6001836020036101000a0380198251168184511680821785525050505050509050019150509081526020016040518091039020925060009150600090505b8280549050811015611ebb578281815481101515611ddc57fe5b906000526020600020906006020160050154820191508281815481101515611e0057fe5b90600052602060002090600602016005015460028483815481101515611e2257fe5b90600052602060002090600602016000016040518082805460018160011615610100020316600290048015611e8e5780601f10611e6c576101008083540402835291820191611e8e565b820191906000526020600020905b815481529060010190602001808311611e7a575b50509150509081526020016040518091039020600082825401925050819055508080600101915050611dc2565b816002856040518082805190602001908083835b602083101515611ef45780518252602082019150602081019050602083039250611ecf565b6001836020036101000a0380198251168184511680821785525050505050509050019150509081526020016040518091039020600082825403925050819055508480600101955050611c8b565b5050505050565b60015481565b6001546002826040518082805190602001908083835b602083101515611f895780518252602082019150602081019050602083039250611f64565b6001836020036101000a03801982511681845116808217855250505050505090500191505090815260200160405180910390208190555050565b828054600181600116156101000203166002900490600052602060002090601f016020900481019282601f1061200457805160ff1916838001178555612032565b82800160010185558215612032579182015b82811115612031578251825591602001919060010190612016565b5b50905061203f91906121d1565b5090565b828054600181600116156101000203166002900490600052602060002090601f016020900481019282601f1061208457805160ff19168380011785556120b2565b828001600101855582156120b2579182015b828111156120b1578251825591602001919060010190612096565b5b5090506120bf91906121d1565b5090565b828054600181600116156101000203166002900490600052602060002090601f016020900481019282601f106120fc5780548555612139565b8280016001018555821561213957600052602060002091601f016020900482015b8281111561213857825482559160010191906001019061211d565b5b50905061214691906121d1565b5090565b828054600181600116156101000203166002900490600052602060002090601f016020900481019282601f1061218357805485556121c0565b828001600101855582156121c057600052602060002091601f016020900482015b828111156121bf5782548255916001019190600101906121a4565b5b5090506121cd91906121d1565b5090565b6121f391905b808211156121ef5760008160009055506001016121d7565b5090565b905600a165627a7a72305820a06c01b4339d2359b63562651b50e2b2a627d0db07718a77a669c971526bd8800029",
  "source": "/*\n  worthratio:\n  initBalance:\n  balanceOf\n  minter\n  bids:\n  startedSupplier:\n  business:\n  successBids_ltera:\n\n  \n  changeInitBalabce:\n  register\n  getBalance:\n  bidding\n  startBusiness:\n  getRource\n  allocation:\n  sortbids:\n  exchange:\n\n*/\npragma solidity ^0.4.18;\n\ncontract SimpleStorage{\n    struct Bid{\n        string Name;//\n        uint Cpu;\n        uint Gpu;\n        uint Memory;\n        uint Band;\n        uint Cost;\n    }\n\n    struct Business{\n        uint Cpu;\n        uint Gpu;\n        uint Memory;\n        uint Band;\n        uint Cost;\n        uint EndTime;//\n    }\n\n    struct Business_ltera{\n        mapping(string=>Bid[]) successBids;//\n        mapping(uint=>string) successBids_lterable;//\n        uint size;\n    }\n\n    //\n    mapping(string=>uint) worthratio;\n    uint public initBalance =100;//\n    mapping(string=>uint)  balanceOf;//\n    address public minter;//\n    mapping(string=>Bid[])  bids;//\n    string[] public startedSupplier;//\n    mapping(string=>Business) business;//\n    Business_ltera successBids_ltera;//\n    mapping(string=>uint[]) res;//\n\n    constructor() public{\n        minter = msg.sender;\n        // cpu:gpu:memory:band = 5:10:2:1\n        worthratio[\"cpu\"] = 5;\n        worthratio[\"gpu\"] = 10;\n        worthratio[\"memory\"] = 2;\n        worthratio[\"band\"] = 1;\n    }\n\n    //\n    function changeInitBalance(uint _initBalance) public{\n        if(msg.sender!=minter) return;\n        initBalance = _initBalance;\n    }\n\n    //\n    function register(string memory _name) public{\n        balanceOf[_name] = initBalance;\n    }\n\n    //\n    function getBalance(string memory _name) public view returns(uint){\n        return balanceOf[_name];\n    }\n\n    //\n    function startBusiness(string memory _supplier,uint _cpu,uint _gpu,uint _memory,uint _band,uint _time) public{\n        Business storage bus = business[_supplier];\n        bus.Cpu = _cpu;\n        bus.Gpu = _gpu;\n        bus.Memory = _memory;\n        bus.Band = _band;\n        bus.EndTime = now + _time;\n        startedSupplier.push(_supplier);\n    }\n\n    //\n    function bidding(string memory _supplier,string memory _name,uint _cpu,uint _gpu,uint _memory,uint _band,uint _cost) public {\n        if(_cpu<=business[_supplier].Cpu&&_gpu<=business[_supplier].Gpu&&_memory<=business[_supplier].Memory&&_band<=business[_supplier].Band){\n            bids[_supplier].push(Bid({\n                Name:_name,\n                Cpu:_cpu,\n                Gpu:_gpu,\n                Memory:_memory,\n                Band:_band,\n                Cost:_cost\n            }));\n        }\n        // \n    }\n\n    //,,bids\n    function allocation() public {\n        uint log = 0;//\n        for(uint i=0;i<startedSupplier.length;i++){\n            if(now>business[startedSupplier[i]].EndTime){\n                Bid[] storage bs = bids[startedSupplier[i]];\n                //sortbids(bs);\n                for(uint j=0;j<bs.length;j++){\n                    uint[] memory sum ;//\n                    sum[0] += bs[j].Cpu;\n                    sum[1] += bs[j].Gpu;\n                    sum[2] += bs[j].Memory;\n                    sum[3] += bs[j].Band;\n                    Business storage bus = business[startedSupplier[i]];\n                    if(sum[0]<=bus.Cpu&&sum[1]<=bus.Gpu&&sum[2]<=bus.Memory&&sum[3]<=bus.Band){\n                        successBids_ltera.successBids[bs[j].Name].push(bs[j]);//\n                        successBids_ltera.successBids_lterable[log] = bs[j].Name;\n                        successBids_ltera.size++;\n                        log = log +1;//\n                        delete business[startedSupplier[i]];\n                    }else{\n                        sum[0] = 0;\n                        sum[1] = 0;\n                        sum[2] = 0;\n                        sum[3] = 0;\n                        break;\n                    }\n                  }\n\n              }\n         }\n    }\n\n      // , 0\n    function setRource(string memory _user,string memory _supplier) public {\n        Bid[] storage successbidsarray = successBids_ltera.successBids[_user];\n        uint log = 0;\n        for(uint i =0;i<successbidsarray.length;i++){\n            string memory supplier = successbidsarray[i].Name;\n            if(keccak256(abi.encodePacked(supplier))== keccak256(abi.encodePacked(_supplier))){\n                res[_user].push(successbidsarray[i].Cpu);\n                res[_user].push(successbidsarray[i].Gpu);\n                res[_user].push(successbidsarray[i].Memory);\n                res[_user].push(successbidsarray[i].Band);\n                log = 1;\n            }\n        }\n        if(log == 0){\n            res[_user].push(0);\n            res[_user].push(0);\n            res[_user].push(0);\n            res[_user].push(0);\n          }\n    }\n\n    function getRource(string memory _user) public view returns(uint,uint,uint,uint){\n        return (res[_user][0],res[_user][1],res[_user][2],res[_user][3]);\n    }\n\n    //\n    function sortbids(Bid[] storage bs) internal{\n        for(uint i=0;i<bs.length-1;i++){\n            for(uint j=0;j<bs.length-i-1;j++){\n                uint  num1 = bs[j].Cpu*worthratio[\"cpu\"]+bs[j].Gpu*worthratio[\"gpu\"]+bs[j].Memory*worthratio[\"memory\"]+bs[j].Band*worthratio[\"band\"];\n                uint  num2 = bs[j+1].Cpu*worthratio[\"cpu\"]+bs[j+1].Gpu*worthratio[\"gpu\"]+bs[j+1].Memory*worthratio[\"memory\"]+bs[j+1].Band*worthratio[\"band\"];\n                if(bs[j].Cost/num1<=bs[j+1].Cost/num2){\n                    Bid storage tmp = bs[j];\n                    bs[j] = bs[j+1];\n                    bs[j+1] = tmp;\n                }\n            }\n        }\n    }\n\n    //,\n    function exchange() public{\n       //successBids_ltera.size;\n        for(uint i=0;i<successBids_ltera.size;i++){\n            string memory _user = successBids_ltera.successBids_lterable[i];\n            Bid[] storage _bids = successBids_ltera.successBids[_user];//\n            uint costSum = 0;\n            for(uint j=0;j<_bids.length;j++){\n                costSum = costSum+_bids[j].Cost;\n                balanceOf[_bids[j].Name] +=  _bids[j].Cost;\n            }\n            balanceOf[_user] -= costSum;\n        }\n    }\n}\n",
  "sourcePath": "D:\\online_auction\\contracts\\SimpleStorage.sol",
  "compiler": {
    "name": "solc",
    "version": "0.4.24+commit.e67f0147.Emscripten.clang"
  },
  "schemaVersion": "2.0.1",
  "updatedAt": "2019-03-21T10:19:25.718Z"
}