{
  "contractName": "SimpleStorage",
  "abi": [
    {
      "constant": true,
      "inputs": [],
      "name": "minter",
      "outputs": [
        {
          "name": "",
          "type": "address"
        }
      ],
      "payable": false,
      "stateMutability": "view",
      "type": "function"
    },
    {
      "constant": true,
      "inputs": [
        {
          "name": "",
          "type": "uint256"
        }
      ],
      "name": "startedSupplier",
      "outputs": [
        {
          "name": "",
          "type": "string"
        }
      ],
      "payable": false,
      "stateMutability": "view",
      "type": "function"
    },
    {
      "constant": true,
      "inputs": [],
      "name": "initBalance",
      "outputs": [
        {
          "name": "",
          "type": "uint256"
        }
      ],
      "payable": false,
      "stateMutability": "view",
      "type": "function"
    },
    {
      "inputs": [],
      "payable": false,
      "stateMutability": "nonpayable",
      "type": "constructor"
    },
    {
      "constant": false,
      "inputs": [
        {
          "name": "_initBalance",
          "type": "uint256"
        }
      ],
      "name": "changeInitBalance",
      "outputs": [],
      "payable": false,
      "stateMutability": "nonpayable",
      "type": "function"
    },
    {
      "constant": false,
      "inputs": [
        {
          "name": "_name",
          "type": "string"
        }
      ],
      "name": "register",
      "outputs": [],
      "payable": false,
      "stateMutability": "nonpayable",
      "type": "function"
    },
    {
      "constant": true,
      "inputs": [
        {
          "name": "_name",
          "type": "string"
        }
      ],
      "name": "getBalance",
      "outputs": [
        {
          "name": "",
          "type": "uint256"
        }
      ],
      "payable": false,
      "stateMutability": "view",
      "type": "function"
    },
    {
      "constant": false,
      "inputs": [
        {
          "name": "_supplier",
          "type": "string"
        },
        {
          "name": "_cpu",
          "type": "uint256"
        },
        {
          "name": "_gpu",
          "type": "uint256"
        },
        {
          "name": "_memory",
          "type": "uint256"
        },
        {
          "name": "_band",
          "type": "uint256"
        },
        {
          "name": "_time",
          "type": "uint256"
        }
      ],
      "name": "startBusiness",
      "outputs": [],
      "payable": false,
      "stateMutability": "nonpayable",
      "type": "function"
    },
    {
      "constant": false,
      "inputs": [
        {
          "name": "_supplier",
          "type": "string"
        },
        {
          "name": "_name",
          "type": "string"
        },
        {
          "name": "_cpu",
          "type": "uint256"
        },
        {
          "name": "_gpu",
          "type": "uint256"
        },
        {
          "name": "_memory",
          "type": "uint256"
        },
        {
          "name": "_band",
          "type": "uint256"
        },
        {
          "name": "_cost",
          "type": "uint256"
        }
      ],
      "name": "bidding",
      "outputs": [],
      "payable": false,
      "stateMutability": "nonpayable",
      "type": "function"
    },
    {
      "constant": false,
      "inputs": [
        {
          "name": "_user",
          "type": "string"
        },
        {
          "name": "_supplier",
          "type": "string"
        }
      ],
      "name": "setRource",
      "outputs": [],
      "payable": false,
      "stateMutability": "nonpayable",
      "type": "function"
    },
    {
      "constant": true,
      "inputs": [
        {
          "name": "_user",
          "type": "string"
        }
      ],
      "name": "getRource",
      "outputs": [
        {
          "name": "",
          "type": "uint256"
        },
        {
          "name": "",
          "type": "uint256"
        },
        {
          "name": "",
          "type": "uint256"
        },
        {
          "name": "",
          "type": "uint256"
        }
      ],
      "payable": false,
      "stateMutability": "view",
      "type": "function"
    }
  ],
  "bytecode": "0x6080604052606460015534801561001557600080fd5b5033600360006101000a81548173ffffffffffffffffffffffffffffffffffffffff021916908373ffffffffffffffffffffffffffffffffffffffff1602179055506005600060405180807f63707500000000000000000000000000000000000000000000000000000000008152506003019050908152602001604051809103902081905550600a600060405180807f677075000000000000000000000000000000000000000000000000000000000081525060030190509081526020016040518091039020819055506002600060405180807f6d656d6f7279000000000000000000000000000000000000000000000000000081525060060190509081526020016040518091039020819055506001600060405180807f62616e64000000000000000000000000000000000000000000000000000000008152506004019050908152602001604051809103902081905550612638806101766000396000f3006080604052600436106100a4576000357c0100000000000000000000000000000000000000000000000000000000900463ffffffff16806307546172146100a9578063220af0ca14610100578063233cd1261461019b5780633a51d2461461022d5780635b42a548146102aa5780637608d46a1461035057806384b4c64114610431578063c0a7a2a4146104e0578063d59a2ad61461050d578063f2c298be14610538575b600080fd5b3480156100b557600080fd5b506100be6105a1565b604051808273ffffffffffffffffffffffffffffffffffffffff1673ffffffffffffffffffffffffffffffffffffffff16815260200191505060405180910390f35b34801561010c57600080fd5b50610199600480360381019080803590602001908201803590602001908080601f016020809104026020016040519081016040528093929190818152602001838380828437820191505050505050919291929080359060200190929190803590602001909291908035906020019092919080359060200190929190803590602001909291905050506105c7565b005b3480156101a757600080fd5b50610202600480360381019080803590602001908201803590602001908080601f01602080910402602001604051908101604052809392919081815260200183838082843782019150505050505091929192905050506106ad565b6040518085815260200184815260200183815260200182815260200194505050505060405180910390f35b34801561023957600080fd5b50610294600480360381019080803590602001908201803590602001908080601f01602080910402602001604051908101604052809392919081815260200183838082843782019150505050505091929192905050506108d2565b6040518082815260200191505060405180910390f35b3480156102b657600080fd5b506102d560048036038101908080359060200190929190505050610947565b6040518080602001828103825283818151815260200191508051906020019080838360005b838110156103155780820151818401526020810190506102fa565b50505050905090810190601f1680156103425780820380516001836020036101000a031916815260200191505b509250505060405180910390f35b34801561035c57600080fd5b5061042f600480360381019080803590602001908201803590602001908080601f0160208091040260200160405190810160405280939291908181526020018383808284378201915050505050509192919290803590602001908201803590602001908080601f01602080910402602001604051908101604052809392919081815260200183838082843782019150505050505091929192908035906020019092919080359060200190929190803590602001909291908035906020019092919080359060200190929190505050610a02565b005b34801561043d57600080fd5b506104de600480360381019080803590602001908201803590602001908080601f0160208091040260200160405190810160405280939291908181526020018383808284378201915050505050509192919290803590602001908201803590602001908080601f0160208091040260200160405190810160405280939291908181526020018383808284378201915050505050509192919290505050610d17565b005b3480156104ec57600080fd5b5061050b60048036038101908080359060200190929190505050611555565b005b34801561051957600080fd5b506105226115bc565b6040518082815260200191505060405180910390f35b34801561054457600080fd5b5061059f600480360381019080803590602001908201803590602001908080601f01602080910402602001604051908101604052809392919081815260200183838082843782019150505050505091929192905050506115c2565b005b600360009054906101000a900473ffffffffffffffffffffffffffffffffffffffff1681565b60006006876040518082805190602001908083835b60208310151561060157805182526020820191506020810190506020830392506105dc565b6001836020036101000a03801982511681845116808217855250505050505090500191505090815260200160405180910390209050858160000181905550848160010181905550838160020181905550828160030181905550814201816005018190555060058790806001815401808255809150509060018203906000526020600020016000909192909190915090805190602001906106a29291906123d9565b505050505050505050565b600080600080600a856040518082805190602001908083835b6020831015156106eb57805182526020820191506020810190506020830392506106c6565b6001836020036101000a0380198251168184511680821785525050505050509050019150509081526020016040518091039020600081548110151561072c57fe5b9060005260206000200154600a866040518082805190602001908083835b60208310151561076f578051825260208201915060208101905060208303925061074a565b6001836020036101000a038019825116818451168082178552505050505050905001915050908152602001604051809103902060018154811015156107b057fe5b9060005260206000200154600a876040518082805190602001908083835b6020831015156107f357805182526020820191506020810190506020830392506107ce565b6001836020036101000a0380198251168184511680821785525050505050509050019150509081526020016040518091039020600281548110151561083457fe5b9060005260206000200154600a886040518082805190602001908083835b6020831015156108775780518252602082019150602081019050602083039250610852565b6001836020036101000a038019825116818451168082178552505050505050905001915050908152602001604051809103902060038154811015156108b857fe5b906000526020600020015493509350935093509193509193565b60006002826040518082805190602001908083835b60208310151561090c57805182526020820191506020810190506020830392506108e7565b6001836020036101000a0380198251168184511680821785525050505050509050019150509081526020016040518091039020549050919050565b60058181548110151561095657fe5b906000526020600020016000915090508054600181600116156101000203166002900480601f0160208091040260200160405190810160405280929190818152602001828054600181600116156101000203166002900480156109fa5780601f106109cf576101008083540402835291602001916109fa565b820191906000526020600020905b8154815290600101906020018083116109dd57829003601f168201915b505050505081565b6006876040518082805190602001908083835b602083101515610a3a5780518252602082019150602081019050602083039250610a15565b6001836020036101000a0380198251168184511680821785525050505050509050019150509081526020016040518091039020600001548511158015610aee57506006876040518082805190602001908083835b602083101515610ab35780518252602082019150602081019050602083039250610a8e565b6001836020036101000a0380198251168184511680821785525050505050509050019150509081526020016040518091039020600101548411155b8015610b6857506006876040518082805190602001908083835b602083101515610b2d5780518252602082019150602081019050602083039250610b08565b6001836020036101000a0380198251168184511680821785525050505050509050019150509081526020016040518091039020600201548311155b8015610be257506006876040518082805190602001908083835b602083101515610ba75780518252602082019150602081019050602083039250610b82565b6001836020036101000a0380198251168184511680821785525050505050509050019150509081526020016040518091039020600301548211155b15610cfe576004876040518082805190602001908083835b602083101515610c1f5780518252602082019150602081019050602083039250610bfa565b6001836020036101000a038019825116818451168082178552505050505050905001915050908152602001604051809103902060c06040519081016040528088815260200187815260200186815260200185815260200184815260200183815250908060018154018082558091505090600182039060005260206000209060060201600090919290919091506000820151816000019080519060200190610cc7929190612459565b506020820151816001015560408201518160020155606082015181600301556080820151816004015560a082015181600501555050505b610d06611637565b610d0e611c12565b50505050505050565b600080600060606007600001866040518082805190602001908083835b602083101515610d595780518252602082019150602081019050602083039250610d34565b6001836020036101000a0380198251168184511680821785525050505050509050019150509081526020016040518091039020935060009250600091505b83805490508210156112eb578382815481101515610db157fe5b90600052602060002090600602016000018054600181600116156101000203166002900480601f016020809104026020016040519081016040528092919081815260200182805460018160011615610100020316600290048015610e565780601f10610e2b57610100808354040283529160200191610e56565b820191906000526020600020905b815481529060010190602001808311610e3957829003601f168201915b50505050509050846040516020018082805190602001908083835b602083101515610e965780518252602082019150602081019050602083039250610e71565b6001836020036101000a0380198251168184511680821785525050505050509050019150506040516020818303038152906040526040518082805190602001908083835b602083101515610eff5780518252602082019150602081019050602083039250610eda565b6001836020036101000a038019825116818451168082178552505050505050905001915050604051809103902060001916816040516020018082805190602001908083835b602083101515610f695780518252602082019150602081019050602083039250610f44565b6001836020036101000a0380198251168184511680821785525050505050509050019150506040516020818303038152906040526040518082805190602001908083835b602083101515610fd25780518252602082019150602081019050602083039250610fad565b6001836020036101000a03801982511681845116808217855250505050505090500191505060405180910390206000191614156112de57600a866040518082805190602001908083835b602083101515611041578051825260208201915060208101905060208303925061101c565b6001836020036101000a0380198251168184511680821785525050505050509050019150509081526020016040518091039020848381548110151561108257fe5b9060005260206000209060060201600101549080600181540180825580915050906001820390600052602060002001600090919290919091505550600a866040518082805190602001908083835b6020831015156110f557805182526020820191506020810190506020830392506110d0565b6001836020036101000a0380198251168184511680821785525050505050509050019150509081526020016040518091039020848381548110151561113657fe5b9060005260206000209060060201600201549080600181540180825580915050906001820390600052602060002001600090919290919091505550600a866040518082805190602001908083835b6020831015156111a95780518252602082019150602081019050602083039250611184565b6001836020036101000a038019825116818451168082178552505050505050905001915050908152602001604051809103902084838154811015156111ea57fe5b9060005260206000209060060201600301549080600181540180825580915050906001820390600052602060002001600090919290919091505550600a866040518082805190602001908083835b60208310151561125d5780518252602082019150602081019050602083039250611238565b6001836020036101000a0380198251168184511680821785525050505050509050019150509081526020016040518091039020848381548110151561129e57fe5b9060005260206000209060060201600401549080600181540180825580915050906001820390600052602060002001600090919290919091505550600192505b8180600101925050610d97565b600083141561154d57600a866040518082805190602001908083835b60208310151561132c5780518252602082019150602081019050602083039250611307565b6001836020036101000a038019825116818451168082178552505050505050905001915050908152602001604051809103902060009080600181540180825580915050906001820390600052602060002001600090919290919091505550600a866040518082805190602001908083835b6020831015156113c2578051825260208201915060208101905060208303925061139d565b6001836020036101000a038019825116818451168082178552505050505050905001915050908152602001604051809103902060009080600181540180825580915050906001820390600052602060002001600090919290919091505550600a866040518082805190602001908083835b6020831015156114585780518252602082019150602081019050602083039250611433565b6001836020036101000a038019825116818451168082178552505050505050905001915050908152602001604051809103902060009080600181540180825580915050906001820390600052602060002001600090919290919091505550600a866040518082805190602001908083835b6020831015156114ee57805182526020820191506020810190506020830392506114c9565b6001836020036101000a0380198251168184511680821785525050505050509050019150509081526020016040518091039020600090806001815401808255809150509060018203906000526020600020016000909192909190915055505b505050505050565b600360009054906101000a900473ffffffffffffffffffffffffffffffffffffffff1673ffffffffffffffffffffffffffffffffffffffff163373ffffffffffffffffffffffffffffffffffffffff161415156115b1576115b9565b806001819055505b50565b60015481565b6001546002826040518082805190602001908083835b6020831015156115fd57805182526020820191506020810190506020830392506115d8565b6001836020036101000a03801982511681845116808217855250505050505090500191505090815260200160405180910390208190555050565b60008060008060606000809550600094505b600580549050851015611c0a57600660058681548110151561166757fe5b9060005260206000200160405180828054600181600116156101000203166002900480156116cc5780601f106116aa5761010080835404028352918201916116cc565b820191906000526020600020905b8154815290600101906020018083116116b8575b5050915050908152602001604051809103902060050154421115611bfd5760046005868154811015156116fb57fe5b9060005260206000200160405180828054600181600116156101000203166002900480156117605780601f1061173e576101008083540402835291820191611760565b820191906000526020600020905b81548152906001019060200180831161174c575b50509150509081526020016040518091039020935061177e84611edc565b600092505b8380549050831015611bfc57838381548110151561179d57fe5b9060005260206000209060060201600101548260008151811015156117be57fe5b906020019060200201818151019150818152505083838154811015156117e057fe5b90600052602060002090600602016002015482600181518110151561180157fe5b9060200190602002018181510191508181525050838381548110151561182357fe5b90600052602060002090600602016003015482600281518110151561184457fe5b9060200190602002018181510191508181525050838381548110151561186657fe5b90600052602060002090600602016004015482600381518110151561188757fe5b906020019060200201818151019150818152505060066005868154811015156118ac57fe5b9060005260206000200160405180828054600181600116156101000203166002900480156119115780601f106118ef576101008083540402835291820191611911565b820191906000526020600020905b8154815290600101906020018083116118fd575b505091505090815260200160405180910390209050806000015482600081518110151561193a57fe5b906020019060200201511115801561196e5750806001015482600181518110151561196157fe5b9060200190602002015111155b80156119965750806002015482600281518110151561198957fe5b9060200190602002015111155b80156119be575080600301548260038151811015156119b157fe5b9060200190602002015111155b15611b6e57600760000184848154811015156119d657fe5b90600052602060002090600602016000016040518082805460018160011615610100020316600290048015611a425780601f10611a20576101008083540402835291820191611a42565b820191906000526020600020905b815481529060010190602001808311611a2e575b505091505090815260200160405180910390208484815481101515611a6357fe5b90600052602060002090600602019080600181540180825580915050906001820390600052602060002090600602016000909192909190915060008201816000019080546001816001161561010002031660029004611ac39291906124d9565b5060018201548160010155600282015481600201556003820154816003015560048201548160040155600582015481600501555050508383815481101515611b0757fe5b9060005260206000209060060201600001600760010160008881526020019081526020016000209080546001816001161561010002031660029004611b4d929190612560565b50600760020160008154809291906001019190505550600186019550611bef565b6000826000815181101515611b7f57fe5b90602001906020020181815250506000826001815181101515611b9e57fe5b90602001906020020181815250506000826002815181101515611bbd57fe5b90602001906020020181815250506000826003815181101515611bdc57fe5b9060200190602002018181525050611bfc565b8280600101935050611783565b5b8480600101955050611649565b505050505050565b6000606060008060008094505b600760020154851015611ed557600760010160008681526020019081526020016000208054600181600116156101000203166002900480601f016020809104026020016040519081016040528092919081815260200182805460018160011615610100020316600290048015611cd65780601f10611cab57610100808354040283529160200191611cd6565b820191906000526020600020905b815481529060010190602001808311611cb957829003601f168201915b505050505093506007600001846040518082805190602001908083835b602083101515611d185780518252602082019150602081019050602083039250611cf3565b6001836020036101000a0380198251168184511680821785525050505050509050019150509081526020016040518091039020925060009150600090505b8280549050811015611e4f578281815481101515611d7057fe5b906000526020600020906006020160050154820191508281815481101515611d9457fe5b90600052602060002090600602016005015460028483815481101515611db657fe5b90600052602060002090600602016000016040518082805460018160011615610100020316600290048015611e225780601f10611e00576101008083540402835291820191611e22565b820191906000526020600020905b815481529060010190602001808311611e0e575b50509150509081526020016040518091039020600082825401925050819055508080600101915050611d56565b816002856040518082805190602001908083835b602083101515611e885780518252602082019150602081019050602083039250611e63565b6001836020036101000a0380198251168184511680821785525050505050509050019150509081526020016040518091039020600082825403925050819055508480600101955050611c1f565b5050505050565b60008060008060008094505b60018680549050038510156123d157600093505b600185878054905003038410156123c457600060405180807f62616e640000000000000000000000000000000000000000000000000000000081525060040190509081526020016040518091039020548685815481101515611f5a57fe5b90600052602060002090600602016004015402600060405180807f6d656d6f7279000000000000000000000000000000000000000000000000000081525060060190509081526020016040518091039020548786815481101515611fba57fe5b90600052602060002090600602016003015402600060405180807f67707500000000000000000000000000000000000000000000000000000000008152506003019050908152602001604051809103902054888781548110151561201a57fe5b90600052602060002090600602016002015402600060405180807f63707500000000000000000000000000000000000000000000000000000000008152506003019050908152602001604051809103902054898881548110151561207a57fe5b906000526020600020906006020160010154020101019250600060405180807f62616e6400000000000000000000000000000000000000000000000000000000815250600401905090815260200160405180910390205486600186018154811015156120e257fe5b90600052602060002090600602016004015402600060405180807f6d656d6f727900000000000000000000000000000000000000000000000000008152506006019050908152602001604051809103902054876001870181548110151561214557fe5b90600052602060002090600602016003015402600060405180807f6770750000000000000000000000000000000000000000000000000000000000815250600301905090815260200160405180910390205488600188018154811015156121a857fe5b90600052602060002090600602016002015402600060405180807f63707500000000000000000000000000000000000000000000000000000000008152506003019050908152602001604051809103902054896001890181548110151561220b57fe5b90600052602060002090600602016001015402010101915081866001860181548110151561223557fe5b90600052602060002090600602016005015481151561225057fe5b0483878681548110151561226057fe5b90600052602060002090600602016005015481151561227b57fe5b041115156123b757858481548110151561229157fe5b9060005260206000209060060201905085600185018154811015156122b257fe5b906000526020600020906006020186858154811015156122ce57fe5b9060005260206000209060060201600082018160000190805460018160011615610100020316600290046123039291906124d9565b50600182015481600101556002820154816002015560038201548160030155600482015481600401556005820154816005015590505080866001860181548110151561234b57fe5b9060005260206000209060060201600082018160000190805460018160011615610100020316600290046123809291906124d9565b5060018201548160010155600282015481600201556003820154816003015560048201548160040155600582015481600501559050505b8380600101945050611efc565b8480600101955050611ee8565b505050505050565b828054600181600116156101000203166002900490600052602060002090601f016020900481019282601f1061241a57805160ff1916838001178555612448565b82800160010185558215612448579182015b8281111561244757825182559160200191906001019061242c565b5b50905061245591906125e7565b5090565b828054600181600116156101000203166002900490600052602060002090601f016020900481019282601f1061249a57805160ff19168380011785556124c8565b828001600101855582156124c8579182015b828111156124c75782518255916020019190600101906124ac565b5b5090506124d591906125e7565b5090565b828054600181600116156101000203166002900490600052602060002090601f016020900481019282601f10612512578054855561254f565b8280016001018555821561254f57600052602060002091601f016020900482015b8281111561254e578254825591600101919060010190612533565b5b50905061255c91906125e7565b5090565b828054600181600116156101000203166002900490600052602060002090601f016020900481019282601f1061259957805485556125d6565b828001600101855582156125d657600052602060002091601f016020900482015b828111156125d55782548255916001019190600101906125ba565b5b5090506125e391906125e7565b5090565b61260991905b808211156126055760008160009055506001016125ed565b5090565b905600a165627a7a723058203919bcf0c204c93a7d10abdb8ea9f896b5ce379d0e1c4fc33d4fa782639377d00029",
  "source": "/*\n  worthratio:\n  initBalance:\n  balanceOf\n  minter\n  bids:\n  startedSupplier:\n  business:\n  successBids_ltera:\n\n  \n  changeInitBalabce:\n  register\n  getBalance:\n  bidding\n  startBusiness:\n  getRource\n  allocation:\n  sortbids:\n  exchange:\n\n*/\npragma solidity ^0.4.18;\n\ncontract SimpleStorage{\n    struct Bid{\n        string Name;//\n        uint Cpu;\n        uint Gpu;\n        uint Memory;\n        uint Band;\n        uint Cost;\n    }\n\n    struct Business{\n        uint Cpu;\n        uint Gpu;\n        uint Memory;\n        uint Band;\n        uint Cost;\n        uint EndTime;//\n    }\n\n    struct Business_ltera{\n        mapping(string=>Bid[]) successBids;//\n        mapping(uint=>string) successBids_lterable;//\n        uint size;\n    }\n\n    //\n    mapping(string=>uint) worthratio;\n    uint public initBalance =100;//\n    mapping(string=>uint)  balanceOf;//\n    address public minter;//\n    mapping(string=>Bid[])  bids;//\n    string[] public startedSupplier;//\n    mapping(string=>Business) business;//\n    Business_ltera successBids_ltera;//\n    mapping(string=>uint[]) res;//\n\n    constructor() public{\n        minter = msg.sender;\n        // cpu:gpu:memory:band = 5:10:2:1\n        worthratio[\"cpu\"] = 5;\n        worthratio[\"gpu\"] = 10;\n        worthratio[\"memory\"] = 2;\n        worthratio[\"band\"] = 1;\n    }\n\n    //\n    function changeInitBalance(uint _initBalance) public{\n        if(msg.sender!=minter) return;\n        initBalance = _initBalance;\n    }\n\n    //\n    function register(string memory _name) public{\n        balanceOf[_name] = initBalance;\n    }\n\n    //\n    function getBalance(string memory _name) public view returns(uint){\n        return balanceOf[_name];\n    }\n\n    //\n    function startBusiness(string memory _supplier,uint _cpu,uint _gpu,uint _memory,uint _band,uint _time) public{\n        Business storage bus = business[_supplier];\n        bus.Cpu = _cpu;\n        bus.Gpu = _gpu;\n        bus.Memory = _memory;\n        bus.Band = _band;\n        bus.EndTime = now + _time;\n        startedSupplier.push(_supplier);\n    }\n\n    //\n    function bidding(string memory _supplier,string memory _name,uint _cpu,uint _gpu,uint _memory,uint _band,uint _cost) public {\n        if(_cpu<=business[_supplier].Cpu&&_gpu<=business[_supplier].Gpu&&_memory<=business[_supplier].Memory&&_band<=business[_supplier].Band){\n            bids[_supplier].push(Bid({\n                Name:_name,\n                Cpu:_cpu,\n                Gpu:_gpu,\n                Memory:_memory,\n                Band:_band,\n                Cost:_cost\n            }));\n        }\n        // \n        allocation();\n        exchange();\n    }\n\n    //,bids\n    function allocation() internal {\n        uint log = 0;//\n        for(uint i=0;i<startedSupplier.length;i++){\n            if(now>business[startedSupplier[i]].EndTime){\n                Bid[] storage bs = bids[startedSupplier[i]];\n                sortbids(bs);\n                for(uint j=0;j<bs.length;j++){\n                    uint[] memory sum ;//\n                    sum[0] += bs[j].Cpu;\n                    sum[1] += bs[j].Gpu;\n                    sum[2] += bs[j].Memory;\n                    sum[3] += bs[j].Band;\n                    Business storage bus = business[startedSupplier[i]];\n                    if(sum[0]<=bus.Cpu&&sum[1]<=bus.Gpu&&sum[2]<=bus.Memory&&sum[3]<=bus.Band){\n                        successBids_ltera.successBids[bs[j].Name].push(bs[j]);//\n                        successBids_ltera.successBids_lterable[log] = bs[j].Name;\n                        successBids_ltera.size++;\n                        log = log +1;//\n                    }else{\n                        sum[0] = 0;\n                        sum[1] = 0;\n                        sum[2] = 0;\n                        sum[3] = 0;\n                        break;\n                    }\n                  }\n              }\n         }\n    }\n\n      // , 0\n    function setRource(string memory _user,string memory _supplier) public {\n        Bid[] storage successbidsarray = successBids_ltera.successBids[_user];\n        uint log = 0;\n        for(uint i =0;i<successbidsarray.length;i++){\n            string memory supplier = successbidsarray[i].Name;\n            if(keccak256(abi.encodePacked(supplier))== keccak256(abi.encodePacked(_supplier))){\n                res[_user].push(successbidsarray[i].Cpu);\n                res[_user].push(successbidsarray[i].Gpu);\n                res[_user].push(successbidsarray[i].Memory);\n                res[_user].push(successbidsarray[i].Band);\n                log = 1;\n            }\n        }\n        if(log == 0){\n            res[_user].push(0);\n            res[_user].push(0);\n            res[_user].push(0);\n            res[_user].push(0);\n          }\n    }\n\n    function getRource(string memory _user) public view returns(uint,uint,uint,uint){\n        return (res[_user][0],res[_user][1],res[_user][2],res[_user][3]);\n    }\n\n    //\n    function sortbids(Bid[] storage bs) internal{\n        for(uint i=0;i<bs.length-1;i++){\n            for(uint j=0;j<bs.length-i-1;j++){\n                uint  num1 = bs[j].Cpu*worthratio[\"cpu\"]+bs[j].Gpu*worthratio[\"gpu\"]+bs[j].Memory*worthratio[\"memory\"]+bs[j].Band*worthratio[\"band\"];\n                uint  num2 = bs[j+1].Cpu*worthratio[\"cpu\"]+bs[j+1].Gpu*worthratio[\"gpu\"]+bs[j+1].Memory*worthratio[\"memory\"]+bs[j+1].Band*worthratio[\"band\"];\n                if(bs[j].Cost/num1<=bs[j+1].Cost/num2){\n                    Bid storage tmp = bs[j];\n                    bs[j] = bs[j+1];\n                    bs[j+1] = tmp;\n                }\n            }\n        }\n    }\n\n    //\n    function exchange() internal{\n       successBids_ltera.size;\n        for(uint i=0;i<successBids_ltera.size;i++){\n            string memory _user = successBids_ltera.successBids_lterable[i];\n            Bid[] storage bids = successBids_ltera.successBids[_user];//\n            uint costSum = 0;\n            for(uint j=0;j<bids.length;j++){\n                costSum = costSum+bids[j].Cost;\n                balanceOf[bids[j].Name] += bids[j].Cost;\n            }\n            balanceOf[_user] -= costSum;\n        }\n    }\n}\n",
  "sourcePath": "D:\\online_auction\\contracts\\SimpleStorage.sol",
  "compiler": {
    "name": "solc",
    "version": "0.4.24+commit.e67f0147.Emscripten.clang"
  },
  "schemaVersion": "2.0.1",
  "updatedAt": "2019-03-20T13:13:35.648Z"
}